:020000040800F2
:10000000180D0020F5010008ED060008E5060008BF
:10001000E9060008A90500085909000800000000C9
:10002000000000000000000000000000970700082A
:10003000F505000800000000950700089907000872
:100040000F0200080F0200080F0200080F0200084C
:100050000F0200080F0200080F0200080F0200083C
:100060000F0200080F020008F90500080F0200083F
:100070000F0200080F0200080F0200080F0200081C
:100080000F0200080F0200080F0200080F0200080C
:10009000AD0500080F0200080F0200080F0200085B
:1000A0000F0200080F0200080F0200080F020008EC
:1000B0000F0200080F0200080F0200080F020008DC
:1000C0000F0200080F0200080F0200080F020008CC
:1000D0000F0200080F020008F50700080F020008D1
:1000E0000F0200080F0200080F0200080F020008AC
:1000F0000F0200080F0200080F02000800000000B5
:100100000F020008000000000F0200080F020008A4
:100110000F0200080F0200080F0200080F0200087B
:100120000F0200080F0200080F0200080F0200086B
:100130000F02000800000000000000000F0200088D
:10014000D10500080F0200080F0200080F02000886
:1001500000F002F800F03EF80AA090E8000C82449B
:100160008344AAF10107DA4501D100F033F8AFF278
:10017000090EBAE80F0013F0010F18BFFB1A43F085
:10018000010318479C310000BC310000103A24BF25
:1001900078C878C1FAD8520724BF30C830C144BFEC
:1001A00004680C607047000000230024002500262E
:1001B000103A28BF78C1FBD8520728BF30C148BFCA
:1001C0000B607047002070471FB503F008F81FBD93
:1001D00010B510BD00F0BAF91146FFF7F5FF02F0B7
:1001E000EFF800F0D8F903B4FFF7F2FF03BC00F01A
:1001F0001CFC00000948804709480047FEE7FEE76D
:10020000FEE7FEE7FEE7FEE7FEE7FEE7FEE7FEE7C6
:1002100004480549054A064B704700009D07000841
:100220005101000818050020180D002018090020B1
:1002300018090020704700000FB4044910B503AA44
:10024000029800F01FF910BC5DF814FB300000208C
:100250002DE9F0474FF0000A89460446C0F820A077
:100260002046E1688847002876D0252806D0D4E9C2
:1002700001219047206A401C2062F1E7E168204696
:1002800000258847C4F81CA006460027C4F818A01B
:100290002A2E09D0304600F0C1FB38B304EB8708A2
:1002A000303EC8F8186019E059F8041B204604EBEA
:1002B00087029161E1688847012F064618D1E069FD
:1002C000002820DA25F020051DE0D8F8180000EB02
:1002D000800006EB40003038C8F818002046E1687E
:1002E0008847064600F09AFB0028EED1012F0AD07D
:1002F0002E2E08D12046E16888477F1C0646022F33
:1003000045F02005C4DBA069002803DA404245F02F
:100310000105A061E80701D025F01005B6B1A6F1EE
:100320004100192802D8203645F400654A46314676
:10033000204625604D46FFF745FF58B1012806D0FD
:10034000ED1D25F0070000F1080989E704E005F13B
:10035000040985E730468AE7206ABDE8F087032A6A
:1003600040F2308010F0030C00F0158011F8013BD2
:10037000BCF1020F624498BF11F801CB00F8013BB9
:1003800038BF11F8013BA2F1040298BF00F801CB7D
:1003900038BF00F8013B11F0030300F08580083AF4
:1003A000C0F0088051F8043B083A51F804CBA0E8AB
:1003B0000810F5E7121D5CBF51F8043B40F8043B00
:1003C000AFF30080D20724BF11F8013B11F801CB35
:1003D00048BF11F8012B24BF00F8013B00F801CB06
:1003E00048BF00F8012B70474FF000020429C0F00D
:1003F000128010F0030C00F01B80CCF1040CBCF157
:10040000020F18BF00F8012BA8BF20F8022BA1EBA8
:100410000C0100F00DB85FEAC17C24BF00F8012B8D
:1004200000F8012B48BF00F8012B70474FF0000285
:1004300000B5134694469646203922BFA0E80C50DA
:10044000A0E80C50B1F12001BFF4F7AF090728BFB5
:10045000A0E80C5048BF0CC05DF804EB890028BF31
:1004600040F8042B08BF704748BF20F8022B11F05A
:10047000804F18BF00F8012B7047704770477047D6
:1004800070470000074B70B50D467B4400F043F801
:100490000446284600F052F810B14FF0FF3070BD0E
:1004A000204670BD2B1D000010B5203AC0F00B8017
:1004B000B1E81850203AA0E81850B1E81850A0E868
:1004C0001850BFF4F5AF5FEA027C24BFB1E81850C2
:1004D000A0E8185044BF18C918C0BDE810405FEA32
:1004E000827C24BF51F8043B40F8043B08BF7047AE
:1004F000D20728BF31F8023B48BF11F8012B28BFB3
:1005000020F8023B48BF00F8012B704701694A1CE4
:1005100002610878704700B58FB0CDE90131002144
:10052000059105497944CDE9031011466846FFF766
:100530008FFE0FB000BD0000E5FFFFFF007B00F065
:100540008000704700487047B80400207546FFF7E8
:10055000F9FFAE4605006946534620F00700854680
:1005600018B020B5FFF754FEBDE820404FF000065C
:100570004FF000074FF000084FF0000B21F007018B
:10058000AC46ACE8C009ACE8C009ACE8C009ACE8CE
:10059000C0098D46704710B50446AFF30080204671
:1005A000BDE81040FFF71FBE00BFFEE708B50548D5
:1005B0000168054888470548009003480FC802F0C5
:1005C00013FB08BD0400002058030020F80300209E
:1005D00008B5054801680548884705480090034864
:1005E0000FC802F001FB08BD0C00002068030020CA
:1005F0001C0400207047000010B5102001F0BCFD65
:1006000025480178254802F0B4F9244802F0ADF9F4
:100610002348C06920F001002149C861214888624F
:10062000842008620846C06940F00100C86108469D
:10063000006B20F0010008631748401CC86383204A
:1006400048630846006B40F00100086300BF16488D
:1006500000680028FBD02021124802F030FC04463C
:10066000002006E00F4931F81010104A22F810104F
:10067000401C4228F6DB0D48D0F88000A04203D091
:100680004DF6AD610A48416301F0F4F800F030F82E
:1006900000F064F910BD0000D402002000300140D9
:1006A000000002405002002010012142CC01002035
:1006B00090010020FF210171FF2242718271C271FD
:1006C000027242728272FC22C2727047FF21017173
:1006D000FF2242718271C271027242728272FD22E5
:1006E000C272704700BFFEE700BFFEE77047000020
:1006F0001CB52049D1E90301CDE900011D480EC810
:100700001D4801F07DFF1D49D1E90301CDE900013C
:100710001A480EC81A4801F073FF1648416A006A69
:10072000CDE90001134814300EC8164801F068FFE7
:100730001248416A006ACDE90001104814300EC821
:10074000114801F05DFF0B48816B406BCDE9000162
:10075000084828300EC80D4801F052FF0748816B49
:10076000406BCDE90001054828300EC8084801F06B
:1007700047FF1CBD40040020980300207C0400209B
:10078000A8030020B8030020C8030020D8030020DD
:10079000E8030020704770477047000010B512480A
:1007A000006840F47000104908601048006840F08C
:1007B00001000E49086000204860C86208460068D1
:1007C0000B490840094908604FF47F0088600846DB
:1007D000006820F48020086002F09AF900214FF0B0
:1007E000006001F003FF10BD88ED00E00010024042
:1007F000FFFFF6EA10B53749374802F01CFB002826
:1008000064D0354802F094FAC4B21B2C06D06D2C8B
:100810001DD0732C38D07A2C56D13FE02FA0FFF793
:100820000BFD3548FFF752FF3448FFF74FFF3448C0
:10083000FFF74CFF3348FFF749FF3348FFF746FF08
:100840003248FFF743FF0020314908603CE031A007
:10085000FFF7F2FC2848FFF72DFF2848FFF72AFF93
:100860002748FFF727FF2748FFF724FF2648FFF711
:1008700021FF2648FFF71EFFB6EE000A01F03AFA04
:100880000120234908601FE029A0FFF7D5FC0020C4
:100890002B49088001202B49086015E02AA0FFF7AA
:1008A000CBFC154800F084F8144800F081F8144897
:1008B00000F07EF8134800F07BF8134800F078F859
:1008C000124800F075F800BF00BF00BF00F046F806
:1008D00010BD000005030500004400400A0D20651E
:1008E000786974696E67206D6F746F72206D6F64C4
:1008F00065200A0D0000000098030020A8030020D6
:10090000B8030020C8030020D8030020E80300201B
:100910004C0000200A0D20656E746572696E6720B8
:100920006D6F746F72206D6F6465200A0D0000009A
:100930000A0D207374616E64696E67200A0D0000F1
:1009400042000020480000200A0D207A65726F697D
:100950006E67200A0D00000000BFFEE710B50C48CE
:1009600041680C4888470C4841680C48884708484B
:1009700041680B488847084841680A488847044846
:10098000416809488847044841680848884710BDBD
:1009900004000020980300200C000020A803002081
:1009A000B8030020C8030020D8030020E80300207B
:1009B00010B50446FF202071FF216171A171E17122
:1009C00021726172A172FE21E172FFF7C7FF10BDB3
:1009D000FF210171FF2242718271C2710272427263
:1009E0008272F122C2727047B0EE401AB4EEE01A81
:1009F000F1EE10FA02DDB0EE410A7047B0EE600A87
:100A0000FBE7B0EE401AB4EEE01AF1EE10FA02D2B3
:100A1000B0EE410A7047B0EE600AFBE730380A28B2
:100A200001D2012070470020704700BF70470000CE
:100A300010B572B64FF4407001F0CEFD00F0C0F872
:100A400000F010F94FF4612000F086F9014800F041
:100A500003F810BD40420F003EB504464F49032045
:100A600000F042FE00204D4908604860487208725C
:100A7000082088724A49032000F036FE00204849C9
:100A8000086048604872087208208872454904204E
:100A900000F02AFE4449042000F026FE40F21970BE
:100AA00001F020FF40F21A7001F01CFF40F20260DA
:100AB00001F018FF40F2036001F014FF4FF4C06032
:100AC00001F010FF4FF4006303224821374801F082
:100AD000D1FB4FF4805303221821344801F0CAFBA4
:100AE0004FF4805303224821314801F0C3FB4FF4F7
:100AF0000053032218212E4801F0BCFB6946002058
:100B000000F0F2FD2B4800F0E7F92B4800F0E4F983
:100B100000208DF8040001208DF8050000208DF8DC
:100B2000060001208DF8070000208DF808008DF8E0
:100B300009008DF8000069461E4800F019FB69465F
:100B40001D4800F015FB21461A4800F0EBFA21463B
:100B5000194800F0E7FA0E2000F078F900231A4651
:100B60001649184600F05AFA0F230022134910467E
:100B700000F054FA00220521142001F0D7FC0022D5
:100B80000521402001F0D2FC02210A4800F08CFB34
:100B90000221094800F088FB3EBD00005000002003
:100BA000A0000020F00000204001002000080140CB
:100BB000000C014000640040006800400400E0FFB9
:100BC00010B500204FF0E0210861401F01F0A4FFA4
:100BD000134800681349B0FBF1F013490870084648
:100BE000007800EB4001C1EBC0104FF6FF7101EA45
:100BF000C0000E4908800C4800780D4948430D4953
:100C0000086008460068401E4FF0E021486100205F
:100C100088610846006940F00100086110BD0000CD
:100C20000000002000127A00180000201A000020A6
:100C300040420F001C00002070B5044601F0ACFFDC
:100C40000548007800FB04F5002600BF01F078FF9E
:100C5000401BB141FAD370BD1800002010B501F05F
:100C60001BFA10BD10B540F2026001F03BFE40F2ED
:100C7000036001F037FE40F2046001F033FE40F201
:100C8000056001F02FFE4FF4C06001F02BFE012142
:100C90000D4801F04DFB1023022204210B4801F006
:100CA000E9FA202302220421084801F0E3FA402354
:100CB00002220421054801F0DDFA802302220421EA
:100CC000024801F0D7FA10BD0002300000080140D0
:100CD00000B587B040F2026001F004FE40F20C6003
:100CE00001F000FE4FF4C06001F0FCFD4023032240
:100CF0001821174801F0BEFAA0230322042114484A
:100D000001F0B8FA134801F037FE684601F079FEA9
:100D10000020019000900290059003900490102014
:100D2000069069460B4801F053FE01F04DF801F0C2
:100D300077F80021074801F008FE0121054801F07D
:100D400004FE044801F00CFEFFF788FF07B000BD69
:100D5000000801400030014010B5044640F2117017
:100D600001F0C0FD40F2026001F0BCFD4FF4C06034
:100D700001F0B8FD00220621262001F0D7FB042354
:100D8000012218211A4801F075FA082301220421D2
:100D9000174801F06FFA174801F0D4FF21461548B3
:100DA00001F07EFF0021134802F081F80021114874
:100DB00002F06DF800210F4802F059F800210D48AB
:100DC00002F024F800210B4802F018F80421094829
:100DD00002F055F80821074802F061F8054801F0D3
:100DE000F9FF40F20531034802F018F810BD000089
:100DF000000801400044004010B50446074A0021A5
:100E0000074800F055FA0548827A00F10B01201DD1
:100E1000FFF7A5FA0148807A207310BDF00000208A
:100E20000064004010B50446064920680860227B33
:100E3000211D04480B30FFF792FA0249024800F0E6
:100E400019FB10BD50000020006400400C490968E7
:100E500041F001010A4A11601146096821F47C51F0
:100E60001160114609684FF47C5202EA00221143D6
:100E7000034A11601146096821F0010111607047B1
:100E80000066004010B50446074A0021074800F0FC
:100E90000FFA0548827A00F10B01201DFFF75FFA77
:100EA0000148807A207310BD400100200068004096
:100EB00010B50446064920680860227B211D0448BD
:100EC0000B30FFF74CFA0249024800F0D3FA10BD8C
:100ED000A00000200068004010B504460A48844283
:100EE00008D140F2194001F01DFD40F2194001F017
:100EF00009FD07E040F21A4001F014FD40F21A40EB
:100F000001F000FD10BD00000064004010B500219C
:100F1000837A012202FA03F13E4A126842F001028A
:100F20003C4B1A603B4A1C3212688A43394B1C33D3
:100F30001A60C289DAB9374A0C3212688A43354BD3
:100F40000C331A60C288344B03EA024243881A43C6
:100F50004389304C403444F8332082882E4B03EAD6
:100F6000024203881A43438904EBC3035A60C289CF
:100F7000012A1BD1274A0C3212680A43254B0C3335
:100F80001A600288244B03EA024243881A434389C9
:100F9000204C403444F8332082881F4B03EA02423D
:100FA000C3881A43438904EBC3035A6082893AB960
:100FB000184A121D12688A43164B1B1D1A6006E060
:100FC000144A121D12680A43124B1B1D1A60028933
:100FD0003AB9104A143212688A430E4B14331A601D
:100FE00006E00C4A143212680A430A4B14331A60A2
:100FF000027C012A06D1074A1C3212680A43054BBB
:101000001C331A60034A126822F00102014B1A6075
:1010100010BD0000006600400000FFFFF0B585B085
:1010200004460D4616461F466946012000F05CFB4B
:10103000ADF80A700020ADF80C000120ADF80E00EC
:101040008DF8100036B1012E1AD0022E2ED0032EAC
:1010500060D145E00020ADF808004FF6FF7000EACF
:101060004410ADF800000020ADF802004FF6FF700C
:1010700000EA4510ADF804000020ADF806004BE092
:101080000120ADF808004FF6FF7000EA4410ADF8FB
:1010900000000020ADF802004FF6FF7000EA451096
:1010A000ADF804000020ADF8060035E00020ADF8F2
:1010B0000800C4F34F30ADF800004FF6FF7000EAAF
:1010C000C400001DADF80200C5F34F30ADF80400B8
:1010D0004FF6FF7000EAC500001DADF806001BE0EA
:1010E0000120ADF80800C4F34F30ADF800004FF612
:1010F000FF7000EAC400001DADF80200C5F34F30D8
:10110000ADF804004FF6FF7000EAC500001DADF811
:10111000060001E000BFFEE700BF6846FFF7F6FEED
:1011200005B0F0BD2DE9F04104460D4601270F48FA
:10113000854217D80121204600F047FB012808D13D
:10114000E66906F04046284600F0F8FD3043E061CD
:1011500000E000270221204600F037FB012802D0E2
:10116000002700E000273846BDE8F08140420F002C
:10117000F0B502464FF6FF730020146824F0020415
:101180001460146844F00104146000E05B1E5468AD
:1011900004F001040CB9002BF8D1546804F00104E8
:1011A0000CB900207FE00C784FF0404505EA8474CC
:1011B0004D784FF0F85606EA05652C438D784FF4CC
:1011C000702606EA05458E784FF4E05707EA861642
:1011D00035432C43CD78BE0206EA0555CE784FF450
:1011E000C04707EA862635432C434D896D1EC5F35B
:1011F00009052C43D4610C79012C04D1146844F006
:101200008004146003E0146824F0800414604C79B6
:10121000012C04D1146844F04004146003E0146805
:1012200024F0400414608C79012C04D1146844F03B
:101230002004146003E0146824F020041460CC79C6
:10124000012C04D1146824F01004146003E0146825
:1012500044F0100414600C7A012C04D1146844F09A
:101260000804146003E0146824F0080414604C7A45
:10127000012C04D1146844F00404146003E01468E1
:1012800024F004041460146824F0010414604FF680
:10129000FF7300E05B1E546804F001040CB1002BE6
:1012A000F8D103B10120F0BD42690A4342617047A1
:1012B000F8B50026002500F5D87707EB01173F6841
:1012C00007F004071772177A3FB900F5D87707EBD4
:1012D00001173F687F0D176006E000F5D87707EB30
:1012E00001173F68FF08576000F5D87707EB011733
:1012F0003F6807F00207577200F5DA7707EB01172E
:101300003F683F0A82F84B7000F5DA7707EB011768
:101310003F6807F0800782F84C7092F84C70EFBB82
:1013200000F5DA7707EB01173F6807F00F079772B0
:1013300000F5DC7707EB01173F68D77200F5DC7723
:1013400007EB01173F684FEA172C82F80CC000F535
:10135000DC7707EB01173F684FEA174C82F80DC0A6
:1013600000F5DC7707EB01173F684FEA176C82F84E
:101370000EC000F5DE7707EB01173F68D77300F565
:10138000DE7707EB01173F684FEA172C82F810C091
:1013900000F5DE7707EB01173F6800E00DE04FEA4C
:1013A000174C82F811C000F5DE7707EB01173F6894
:1013B0004FEA176C82F812C04FE0076A07F0010687
:1013C000002E48D000F5DA7707EB01173F6807F0E9
:1013D0000F05082D01D8957206E0A5F10907DFF881
:1013E00090C01CF80770977200F5DA7707EB0117C9
:1013F0003F68C7F3401782F84D7000F5DA7707EBC6
:1014000001173F68C7F3001782F84E70977ABB0840
:10141000012B04D1977A042F01D05F1CFBB202F19B
:101420000B0700973BB900F5DC7707EB01173C6829
:10143000009F3C6011E00BE000F5DC7707EB011743
:101440003C68009F3C60009F3F1D00975F1EFBB201
:10145000002BF1D101E000BFFEE721B9C76847F0DA
:101460002007C76003E0076947F020070761F8BD60
:10147000603200082DE9F84103460A4600210024A5
:10148000002600270025986800F08060B0F1806F8A
:1014900000D110E0986800F00060B0F1006F01D159
:1014A000012108E0986800F08050B0F1805F01D120
:1014B000022100E00321032902D10320BDE8F881C5
:1014C00003F5C07000EB0110006800F0010C03F59B
:1014D000C07000EB0110C0F800C0107AB8B91088D5
:1014E000DFF8FCC10CEA405092F809C040EA0C0059
:1014F00003F5C07C0CEB011CDCF800C040EA0C00DA
:1015000003F5C07C0CEB011CCCF800001AE06FF076
:10151000070C50680CEAC00092F808C040EA0C00C2
:1015200092F809C040EA0C0003F5C07C0CEB011CEA
:10153000DCF800C040EA0C0003F5C07C0CEB011C99
:10154000CCF8000092F84B00F0BB03F5C27000EB42
:101550000110006820F00F0C03F5C27000EB0110C1
:10156000C0F800C003F5C27000EB0110006892F8EB
:101570000AC040EA0C0003F5C27C0CEB011CCCF85D
:101580000000907B4FF07F4C0CEA006092F80DC099
:101590004FF47F0808EA0C4C40EA0C0092F80CC0AB
:1015A0004FF47F4808EA0C2C40EA0C0092F80BC07C
:1015B00040EA0C0003F5C47C0CEB011CCCF80000E5
:1015C000907C4FF07F4C00E01CE00CEA006092F849
:1015D00011C04FF47F0808EA0C4C40EA0C0092F866
:1015E00010C04FF47F4808EA0C2C40EA0C0092F837
:1015F0000FC040EA0C0003F5C67C0CEB011CCCF8D4
:1016000000005EE0186A00F00107002F57D0907AC2
:10161000082802D8907A054317E000240AE0907A5F
:10162000DFF8C0C01CF804C0604501D1012603E00A
:10163000601CC4B2072CF2D300BF012E03D104F109
:101640000900054301E000BFFEE792F84C004001AD
:1016500092F84DC040EA0C1092F84BC040EACC1012
:10166000054303F5C27000EB01100560907A840811
:10167000012C04D1907A042801D0601CC4B202F17C
:101680000B0000904CB90098D0F800C003F5C4706E
:1016900000EB0110C0F800C013E00DE00098D0F896
:1016A00000C003F5C47000EB0110C0F800C0009842
:1016B000001D0090601EC4B2002CEFD101E000BFFD
:1016C000FEE703F5C07000EB0110006840F0010C6C
:1016D00003F5C07000EB0110C0F800C00846EDE64D
:1016E0000000E0FF6032000810B5024609B900BFF3
:1016F000FEE7052A65D2DFE802F0031521344B002E
:1017000000234B71CB718B714FF480634B810023AD
:101710000B724B7002238B700023CB700B714B72DA
:101720000B7050E00123CB8100230B740B810B80E5
:101730004B808B80CB808B814B8144E04FF4806366
:101740008B8200230B7402234B7401238B740023C0
:101750008B70CB6001234B7000230B708B604B6050
:1017600031E000234B314B708B7001F84B39002076
:1017700005E0002401F10B031C54431CD8B240289F
:10178000F7D300238B724B600B724B720B601AE025
:1017900000234C314B708B7001F84C39002005E070
:1017A000002401F10B031C54431CD8B24028F7D38A
:1017B00000238B724B600B7281F84B304B720B60C5
:1017C00001E000BFFEE700BF10BD10B502460B46AA
:1017D00000204FF6FF71012B17D1146824F002048A
:1017E0001460146844F00104146000E0491E546859
:1017F00004F001040CB90029F8D1546804F0010484
:101800000CB9002034E0012032E0022B13D114681F
:1018100024F00304146000E0491E546804F003043B
:101820000CB10029F8D1546804F003040CB1002075
:101830001EE001201CE0042B19D1146824F00104DF
:101840001460146844F00204146000E0491E5468F7
:1018500004F00204022C01D00029F7D1546804F0EE
:101860000204022C01D0002002E0012000E0002050
:1018700010BD000010B5FE48806F012834D1FD482E
:101880000068002830D10120FA490860FA48FEF7C4
:1018900011FFFA484168F8488847F948FEF70AFFFF
:1018A000F8484168F6488847F748FEF703FFF348D1
:1018B0004168F5488847F548FEF7FCFEF148416865
:1018C000F2488847F248FEF7F5FEEC484168F048D8
:1018D0008847F048FEF7EEFEEA484168ED48884741
:1018E000EDA0FEF7A9FC10BDE148806F002834D1BF
:1018F000E0480068012830D10020DE490860DE4859
:10190000FEF7E4FEDD484168DB488847DC48FEF727
:10191000DDFEDC484168DA488847DD48FEF7D6FE40
:10192000D6484168DA488847DA48FEF7CFFED548FE
:101930004168D8488847D448FEF7C8FECF48416878
:10194000D1488847D148FEF7C1FECE484168CF480C
:101950008847D2A0FEF770FCC5E7C548806F4DF6FA
:10196000AD61884230D1C348006868BBC248FFF708
:101970002FF8C2484168C0488847C148FFF728F897
:10198000C0484168BE488847C148FFF721F8BB48B6
:101990004168BF488847BF48FFF71AF8B94841680F
:1019A000BC488847B848FFF713F8B4484168B648C0
:1019B0008847B648FFF70CF8B2484168B3488847F3
:1019C000B7A0FEF739FC8EE7B64890ED000AB6489E
:1019D00080ED000AB34890ED030AB34880ED020A97
:1019E000B04890ED060AB04880ED040AAD4890ED8D
:1019F000010AAD4880ED060AAA4890ED040AAA48FB
:101A000080ED080AA74890ED070AA74880ED0A0A6A
:101A1000A64890ED000AA44880ED010AA34890ED85
:101A2000030AA14880ED030AA04890ED060A9E48EB
:101A300080ED050A9D4890ED010A9B4880ED070A5C
:101A40009A4890ED040A984880ED090A974890ED6D
:101A5000070A954880ED0B0A3C219548FEF7E6FC05
:101A60003C219448FEF7E2FC814890ED000A904842
:101A700080ED000A7E4890ED060A8D4880ED010A4F
:101A80007B4890ED0C0A8A4880ED020A784890ED78
:101A9000120A874880ED030A754890ED180A8448B9
:101AA00080ED040A724890ED020A814880ED050A33
:101AB0006F4890ED080A7E4880ED060A6C4890ED6C
:101AC0000E0A7B4880ED070A694890ED140A7848B1
:101AD00080ED080A664890ED1A0A754880ED090AFB
:101AE000634890ED040A724880ED0A0A604890ED60
:101AF0000A0A6F4880ED0B0A5D4890ED100A6C48A9
:101B000080ED0C0A5A4890ED160A694880ED0D0ADE
:101B1000574890ED1C0A664880ED0E0A544890ED37
:101B2000010A644880ED000A514890ED070A6148B7
:101B300080ED010A4E4890ED0D0A5E4880ED020AE4
:101B40004B4890ED130A5B4880ED030A484890ED3E
:101B5000190A584880ED040A454890ED030A554893
:101B600080ED050A424890ED090A524880ED060AC8
:101B70003F4890ED0F0A4F4880ED070A3C4890ED32
:101B8000150A4C4880ED080A394890ED1B0A49486F
:101B900080ED090A364890ED050A464880ED0A0AAC
:101BA000334890ED0B0A434880ED0B0A304890ED26
:101BB000110A404880ED0C0A2D4890ED170A3D4867
:101BC00080ED0D0A2A4890ED1D0A3A4880ED0E0A74
:101BD000002035490863002133484163BFEE082ADD
:101BE000F7EE081A32482F4991ED021AD1ED010A99
:101BF00091ED000A00F0A6FE2B49096B08432A4923
:101C00000863B9EE042AF1EE041A29481430254974
:101C100091ED051AD1ED040A91ED030A00F092FE50
:101C20002149096B41EA40001F490863BFEE082AB9
:101C3000F7EE081A1F481D4991ED021AD1ED010A6D
:101C400091ED000A00F07EFE1749496B08431649E2
:101C50004863B9EE042AF1EE041A16481430134909
:101C600091ED051AD1ED040A91ED030A24E000007C
:101C7000CC0100204C00002098030020040000202C
:101C8000A80300200C000020D8030020E803002057
:101C9000B8030020C8030020650A0D00780A0D0073
:101CA0007A0A0D00F8030020900100201C04002097
:101CB000400400207C04002000F044FE0B49496BE6
:101CC00041EA4001094841630E2101F0F8F8074953
:101CD0008863002006E0054931F81010044A22F814
:101CE0001010401C1E28F6DB00BFFCE59001002010
:101CF000D402002070B52DED088BB0EE408A00F0C4
:101D00004BFF0D48006801F0E7F841EC1A0B18EEA4
:101D1000100A01F0F3F953EC1A2B01F0F1F801F07D
:101D200063FA04460D4600BF00F00AFF001BA941FC
:101D3000FAD3BDEC088B70BD1C0000202DE9F05FCC
:101D400007460024A246022000F00AFDB0FBF7F689
:101D50001820B6FBF0F54FEA960B0FE06D1C162429
:101D600009E0E01C691C00FB01F9B14502D14FF00C
:101D7000010A02E0641E002CF3D100BFBAF1000F8B
:101D800001D15D45EAD3BAF1000F14D00D4800EB44
:101D9000C40080884FF4E00101EA0050094931F89D
:101DA00034104FF4702202EA01410843C5F30901DF
:101DB00040EA010802E000BF00BFFEE74046BDE880
:101DC000F09F00006832000800B587B04FF4A060B3
:101DD00000F088FD0121104800F082F800208DF805
:101DE0001A00029001208DF8190000200390049041
:101DF0000A48009000208DF8180001904FF44050E0
:101E000005906A460121044800F0A2F80121024829
:101E100000F034F807B000BD000002400C30014073
:101E200000B587B04FF4A06000F05CFD02211148BE
:101E300000F056F801208DF81A00002002900120D1
:101E40008DF819000020039004900B4800900020AA
:101E50008DF8180001904FF4405005906A46022119
:101E6000044800F075F80221024800F020F807B09D
:101E700000BD0000000002400C30014070B5054676
:101E80000C462146284600F0FBF808B900BFFEE7E3
:101E900004EB8400810005F10800405820F0200187
:101EA00004EB8400820005F10800815070BD70B51C
:101EB00005460C462146284600F0E2F808B900BF66
:101EC000FEE704EB8400810005F10800405840F073
:101ED000200104EB8400820005F10800815070BDF0
:101EE00070B504460D462946204600F0C9F808B9E9
:101EF00000BFFEE705EB8500810004F108004058B3
:101F000020F0010105EB8500820004F108008150FA
:101F1000002105EB8500820004F10800815005EBEB
:101F20008500820004F10C00815005EB85008200E1
:101F300004F11000815005EB8500820004F11400CB
:101F400081506068AA000F2191400843606070BD15
:101F50002DE9F04104460D4616462946204600F07C
:101F60008FF808B900BFFEE705EB8500820004F199
:101F700010003168815005EB8500820004F11400E7
:101F8000B1688150308A81B205EB8500820004F18E
:101F90000C00815005EB8500810004F108004758D2
:101FA00027F47C57F1687068084371690843074358
:101FB00005EB8500810004F108004750307E0128C0
:101FC0000ED105EB8500810004F10800405840F077
:101FD000400105EB8500820004F1080081500DE00E
:101FE00005EB8500810004F10800405820F0400115
:101FF00005EB8500820004F108008150707E012805
:102000000ED105EB8500810004F10800405840F036
:10201000800105EB8500820004F1080081500DE08D
:1020200005EB8500810004F10800405820F0800194
:1020300005EB8500820004F108008150B07E70B984
:1020400005EB8500810004F10800405820F01001E4
:1020500005EB8500820004F1080081500DE005EBDE
:102060008500810004F10800405840F0100105EBA4
:102070008500820004F108008150BDE8F081000075
:1020800002460120034B9A4202D1042900DD0020C0
:10209000704700000004024010B50421002000F049
:1020A0009DF801220021102000F00AF8102000F015
:1020B00063F8002204210A2000F038FA10BD000065
:1020C00010B52C4B1B6883432A4C2360231D1B68CF
:1020D0008343241D2360231D1B688343241D236029
:1020E000231D1B688343241D236011B101290ED1D8
:1020F00005E0204B1B6803431E4C236008E01D4B8A
:102100001B1D1B6803431B4C241D236000E000BF04
:1021100000BF22B1012A0FD0022A27D119E0154BA6
:1021200008331B680343134C08342360231D1B68CA
:102130008343241D23601AE00E4B08331B6883433E
:102140000C4C08342360231D1B680343241D2360AB
:102150000DE0084B08331B680343064C083423602A
:10216000231D1B680343241D236000E000BF00BF44
:1021700010BD0000000401400149086070470000E4
:1021800014040140014671EE602AF0EE621AB0EECE
:10219000602A30EE423A01208840401E02EE900A4A
:1021A000F8EEE22A63EE222A82EEA13AFDEEC32A7D
:1021B00012EE900A7047000070B504460D46E1B279
:1021C000054800F0BAFD00BF0721034800F007FEF4
:1021D0000028F9D0204670BD0044004010B5002210
:1021E0008B071C0F0F2303FA04F204290EDA204B8D
:1021F0009B6893431E4CA36023469B688C07240F67
:1022000000FA04F423431A4CA3602FE008290EDAE5
:10221000174BDB689343164CE3602346DB688C075F
:10222000240F00FA04F42343114CE3601EE00C2950
:102230000EDA0F4B1B6993430D4C236123461B6938
:102240008C07240F00FA04F42343094C23610DE0AA
:10225000074B5B699343064C636123465B698C07BC
:10226000240F00FA04F42343014C636110BD000005
:1022700000000140F0B5044616460025002201F09A
:102280000F0501F0100747B1042E05D145F00305F5
:10229000E76B1F43E76300E0354300201EE00127A2
:1022A00087401F40C7B122684FEA800C0F2707FA0A
:1022B0000CF7BA43870005FA07F73A43282904D1F7
:1022C000012787401F40676105E0482903D10127A6
:1022D00087401F4027612260471CB8B20828DED320
:1022E000082022E0012787401F40E7B16268A0F183
:1022F00008074FEA870C0F2707FA0CF7BA43A0F13B
:102300000807BF0005FA07F73A43282904D1012737
:1023100087401F40676105E0482903D101278740B6
:102320001F4027616260471CB8B21028DAD3F0BDA5
:10233000F0B50A46002300240021002500F00046E5
:10234000B6F1004F02D11D4EF16901E01B4E7168DC
:10235000C0F3034583B200F44016B6F5401F08D120
:1023600021F0E061154E766826F0E066134F7E603E
:1023700012E000F48016B6F5801F06D1032606FA97
:1023800005F4A14341F0E06106E0460D360103FA91
:1023900006F6B14341F0E06122B1460D360103FA81
:1023A00006F6314300F00046B6F1004F02D1034E6D
:1023B000F16101E0014E7160F0BD000000000140DC
:1023C0001CB5FEF735FB84214548FEF70DF83C218E
:1023D0004448FEF72BF884214348FEF727F843A032
:1023E000FDF72AFF0820444908734449087344490B
:1023F0000873444908734449087344490873062024
:10240000434908734349087301203B4908603B492D
:10241000086002203A4908603A49086003203A49B6
:1024200008603A4908603C49D1E90301CDE900015F
:1024300039480EC8304800F0E3F83849D1E90301C3
:10244000CDE9000135480EC82C4800F0D9F83248D3
:10245000416A006ACDE900012F4814300EC82848AF
:1024600000F0CEF82D48416A006ACDE900012B4802
:1024700014300EC8234800F0C3F82748816B406B26
:10248000CDE90001244828300EC81F4800F0B8F8F4
:102490002248816B406BCDE90001204828300EC8EE
:1024A0001A4800F0ADF8FEF759FA1D48006878B9EF
:1024B00002E00A20FEF7C0FB1948006818B9194865
:1024C00000680028F5D0FEF703FC012014490860DD
:1024D00062B604E014480068401C13490860F9E73C
:1024E000D402002090010020CC0100200A0D2053CE
:1024F00050496E650A0D000098030020A8030020D3
:10250000B8030020C8030020D8030020E8030020FF
:102510005803002068030020400400207C040020B1
:102520003800002010012142340000202DE9F04144
:1025300003460D46164600240027A046244800689E
:1025400000F4E060B0F5A06F15D006DCB0F5407F78
:1025500018D0B0F5806F19D110E0B0F5C06F06D07B
:10256000B0F5E06F12D100274FF0040815E0012705
:102570004FF0030811E00227B8460EE003274FF0A2
:1025800001080AE004274FF0000806E04FF4A060BD
:1025900000F022F80227B84600BF00BFC7F10400D0
:1025A00005FA00F4C8F104010F20C840304004438C
:1025B00024010848C45403F01F0101208840591128
:1025C000890001F1E021C1F80001BDE8F0810000BF
:1025D0000CED00E000E400E002490143024A116012
:1025E000704700000000FA050CED00E0024A0A40C6
:1025F0000243024B1A60704780FFFF1F08ED00E0A6
:102600000FB42DE9F0472DED068B04469DED0F0A22
:10261000F0EE400ABAEE090AFEF7E6F9F0EE40AA3B
:10262000F2EE090AFEF7EDF9B0EE408A9DED100AD0
:10263000F0EE400A9FED460AFEF7D6F9F0EE40AA0A
:10264000DFED440AFEF7DDF9F0EE408A9DED110A58
:10265000F0EE400A9FED400AFEF7C6F9F0EE40AA00
:10266000DFED3E0AFEF7CDF9B0EE409A9DED120A7D
:10267000F0EE400A9FED380AFEF7B6F9F0EE40AAF8
:10268000F1EE040AFEF7BDF9F0EE409A9DED130A53
:10269000F0EE400ABBEE080AFEF7A6F9F0EE40AAFB
:1026A000F3EE080AFEF7ADF9B0EE40AA1020B2EE44
:1026B000091AFAEE090AB0EE480AFFF763FD85B27F
:1026C0000C209FED241ADFED220AB0EE680AFFF716
:1026D00059FD86B20C209FED211ADFED1F0AB0EEE6
:1026E000490AFFF74FFD87B20C20B1EE041ADFED67
:1026F0001A0AB0EE690AFFF745FD1FFA80F80C20B0
:10270000B3EE081AFBEE080AB0EE4A0AFFF73AFDEC
:102710001FFA80F9281220716571C6F30711A171A3
:102720003007000E40EA2721E1712772C8F3071134
:1027300061724FEA0870000E40EA2921A17284F804
:102740000B90BDEC068BBDE8F0075DF814FB0000B4
:10275000000034C200003442000000000000FA43D0
:102760002DE9F14F8EB000200C9055A090E8004C60
:10277000C068CDE905BECDF810A0079051A0D0F8F3
:1027800004A00068CDE9020A0FF2381ADAE9000A5B
:10279000CDE9000A4E484068C0F381000D900D98C5
:1027A00020B1012804D0022856D103E0494A55E05F
:1027B000494A53E04648406800F48039B9F5803F03
:1027C0002FD14348C06A00F080400B900B9808B9A5
:1027D000414900E041493E48C06A00F480300A9017
:1027E0000A98B0F5803F12D13948C06AC0F303108F
:1027F000401C08903648C06AC0F30320871C112F84
:1028000000D114270898B1FBF0F000FB07F1304825
:10281000C06A00F00F00401C09900998B1FBF0F16C
:1028200000E02F492A484068C0F3834328484068A5
:1028300000F0005008B143F010030F2B01D29B1C95
:1028400000E05B1C01FB03F20F2B04D101EB410004
:10285000400000EB510201E01E4A00BF00BF1C48CF
:102860004068C0F3031504A8465D22FA06F4184830
:102870004068C0F3022502A8465D24FA06FC14480D
:102880004068C0F3C2251DF8056024FA06F80E98CA
:1028900030B1012806D0022806D003280AD106E06C
:1028A0000C9208E00C9406E0CDF830C003E0CDF8BF
:1028B000308000E000BF00BF0C980FB0BDE8F08F83
:1028C00000000000000000000102030406070809E0
:1028D0000010024000127A0040787D01006CDC029A
:1028E00000093D00064A02EB9011096800F01F0341
:1028F00001229A401143024B03EB90121160704782
:1029000000100240064A02EB9011096800F01F0314
:1029100001229A409143024B03EB901211607047E1
:1029200000100240064A02EB9011096800F01F03F4
:1029300001229A401143024B03EB90121160704741
:102940000010024001460020704721B9426842F061
:102950000202426003E0426842F0010242607047B6
:10296000016841F04001016070470146C86880B2CB
:102970007047C1607047000010B5044613482044FA
:1029800070B1B0F5806F14D0B0F5784F1AD14FF414
:102990004370FFF7C7FF4FF44370FFF7B3FF12E038
:1029A00040F20E40FFF7BEFF40F20E40FFF7AAFFD5
:1029B00009E040F20F40FFF7B5FF40F20F40FFF78C
:1029C000A1FF00E000BF00BF10BD000000C8FFBFB6
:1029D00002460020106800F441500B6818434B6811
:1029E00018438B681843CB6818430B6918434B692D
:1029F00018438B6918431060D36923F40063D361D3
:102A000070470021016041608160C1604161816166
:102A10007047000000200021374A126842F48032DB
:102A2000354B1A6000BF401C334A126802F4003173
:102A300019B94FF6FF729042F5D12F4A126802F48D
:102A400000320AB900BFFEE72C4A126822F00702E2
:102A5000D21C2A4B1A60284A5268274B5A601A46E1
:102A600052685A601A46526842F480625A601A46A6
:102A70005268234B1A40204B5A601A465268214B29
:102A80001A431D4B5A601A46D26A1F4B1A401A4B02
:102A9000DA621A46D26A1D4B1A43174BDA621A469B
:102AA000126842F080621A6000BF134A126802F096
:102AB0000062002AF9D0104A126842F080720E4B70
:102AC0001A6000BF0C4A126802F00072002AF9D0A6
:102AD000094A526822F00302074B5A601A465268AC
:102AE00042F002025A6000BF034A526802F0080234
:102AF000002AF9D070470000001002400020024078
:102B0000FFFFC3DF0000352000F0FEBF49060100D3
:102B100010B5FFF77FFF10BD042808D14FF0E0216A
:102B2000096941F004014FF0E022116107E04FF024
:102B3000E021096921F004014FF0E02211617047A2
:102B400010B54FF0E02082691048006882420AD830
:102B50000E480068801A0E4C18CCC01844F10001D1
:102B60000B4B03C30DE00B48006808490968084493
:102B7000801A074BD3E90043001943F10001044BCD
:102B800003C302480260024903C910BD20000020AF
:102B9000280000201C0000204FF0E020806903493D
:102BA00008600021024A1160516070472000002037
:102BB00028000020B0EE401A30EEC10AF0EE401AB4
:102BC000B0EE412A00EE100AB8EEC00A60EE212AEB
:102BD00001228A40521E00EE102AB8EEC03A82EE60
:102BE000830A30EE020A70472DE9FF412DED048B78
:102BF0000E9C9DF814509DF816109DF8150041EAA2
:102C000000269DF8170001019DF8180041EA2017E1
:102C10009DF819109DF8180000F00F0041EA0028F7
:102C20001021F2EE090ABAEE090A3046FFF7C2FF98
:102C3000B0EE408A0C21DFED180A9FED180A3846E5
:102C4000FFF7B8FFF0EE408A0C21F3EE080ABBEE66
:102C5000080A4046FFF7AEFFB0EE409A012D06D1BC
:102C600084ED008AC4ED018A84ED029A10E0022D01
:102C700006D184ED038AC4ED048A84ED059A07E049
:102C8000032D05D184ED068AC4ED078A84ED089AE8
:102C9000BDEC048BBDE8FF8100003442000034C26B
:102CA0002DE9F04704460D460027B846B9460026F0
:102CB0001D49601A8C421CD006DC1C48204470B1AF
:102CC000B0F5806F1FD10FE0B0F5806F16D0B0F572
:102CD0006C4F18D10320FFF743FD074614E0022094
:102CE000FFF73EFD07460FE00220FFF739FD0746DC
:102CF0000AE00220FFF734FD074605E00220FFF757
:102D00002FFD074600E000BF00BF07EB5500B0FBFA
:102D1000F5F64FF6F07006EA000806F00F0948EAEB
:102D20000900A060BDE8F087004C004000BCFFBF78
:102D300001464868C0F308007047C1F308024260CA
:102D40007047000010B504462049601A8C4228D014
:102D500006DC1F48204490B1B0F5806F33D117E0F6
:102D6000B0F5806F26D0B0F56C4F2CD140F20E300C
:102D7000FFF7D8FD40F20E30FFF7C4FD24E040F22B
:102D80001140FFF7CFFD40F21140FFF7BBFD1BE004
:102D900040F21240FFF7C6FD40F21240FFF7B2FDCD
:102DA00012E040F21340FFF7BDFD40F21340FFF781
:102DB000A9FD09E040F21440FFF7B4FD40F21440D1
:102DC000FFF7A0FD00E000BF00BF10BD004C0040B9
:102DD00000BCFFBFC16841F40051C160704710B52D
:102DE000024602EB9110006801F01F040123A3408A
:102DF000184008B1012010BD0020FCE70A46002160
:102E0000416921F400711143416170470A46002174
:102E1000416921F4807111434161704710B500EBA5
:102E20009112126801F01F040123A3401A4300EB22
:102E300091131A6010BD70B5024600230024C1F33F
:102E40008910105801F01F060125B54000EA05035E
:102E500002EB91500068C1F304460125B54000EA39
:102E6000050414B10BB1012070BD0020FCE7C2685D
:102E700022F4C062C260C2680A43C26070470A4658
:102E80000021C16821F004011143C160704702694B
:102E900022F44052026102690A43026170470A4605
:102EA0000021C16821F008011143C1607047C26868
:102EB00022F48052C260C2680A43C260704710B5F3
:102EC00002460023002003E052F820406340401CEB
:102ED0008842F9D3184610BDB0FA80F310FA03F116
:102EE0000AD0C3F11D0303F580634FEA41504FEA56
:102EF000035202EBD12170474FF0000070470000F1
:102F0000DFF848C170B51CEA111E1EBF1CEA13157C
:102F10009EEA0C0F95EA0C0F00F06F8081EA030423
:102F200023EA4C134EEAD47E21EA4C1141F480117D
:102F300043F48013AE44A1FB024CA0FB0365AEF149
:102F40007F7E361955EB0C05A1FB034C4CF10003B9
:102F5000A0FB021C16EB0C06654153F1000309426D
:102F600018BF46F0010613F4007F0BD14FEA03317E
:102F70004FEA0530340341EA155140EA16506FF02C
:102F800003020AE04FEAC3214FEAC520F40241EAF6
:102F9000555140EA56506FF0020202EB2E4201EB0F
:102FA000025585EACE710AD05FEA440C18BF24F0BE
:102FB000004450F1000041F1000120EAD47040F2D9
:102FC000FE7C624500D270BDA84214BF4FF0804421
:102FD0004FF04044002E08BF0024BEF1806FA8BF10
:102FE000A1F1C041BDE8704080F282804FF0000046
:102FF00001F1C04101F0004170479EEA0C0F0CEA5C
:10300000131518BF95EA0C0F06D04FF0000081EAA7
:10301000030E0EF0004170BD00F01CF88900013E67
:1030200000F007B800F009B84FEA430C5FEA5C5CB7
:1030300008D081EA030100F05BB84FEA410C5FEA77
:103040005C5CF6D14FF00000014970470000FF07BB
:103050000000F87F0EF1020E2EF0030E5EF8046BF6
:10306000364205D4012A43EB030515F5001F12D89B
:10307000012841EB010C1CF5001F0CD80ED14FEAC2
:10308000D17C15F5001F0CEB4C0C0CF1020C08BFA9
:103090004CEBD37C04E04FF0080C01E04FEAD37C0A
:1030A0000CEB4C0526FA05F606F00706B6F1040C03
:1030B00006D20EEB860CBDE870404CF0010C604768
:1030C000DFE80CF0090B02024FF000414FF0000066
:1030D000A1F5002170BD19461046012851EB0104ED
:1030E00018BFD4F5001484BF002001F0004170BD6A
:1030F0000808A0F500114FEA3101704743004FEA7C
:10310000D30C4FEA3C0C43401FBF40070CF1605109
:1031100013F0FE4F70471CF0006F03D100200CF03D
:10312000004170470CF0004343EA507010B540EA8C
:10313000CC0000F00EF800BF000000924FEA000142
:10314000FFF7D6BF4FF000414FF00000A1F500217E
:1031500070470EF1020E2EF0030E5EF8044B24426F
:1031600004D44FEA4102B2F17F4F11D84FEA400335
:10317000B3F17F4F0CD80ED14FEAD07CB2F17F4F24
:103180000CEB4C0C0CF1020C08BF4CEBD17C04E0B6
:103190004FF0080C01E04FEAD17C0CEB4C0324FA11
:1031A00003F404F00704B4F1040C06D20EEB840C13
:1031B000BDE810404CF0010C6047DFE80CF0070858
:1031C00002024FF00040A0F5800010BD084642000A
:1031D00018BFD2F1807288BF00F0004010BD4FF0E0
:1031E0004070E1EE100A70474FEAC1230A1543EA26
:1031F00050534FEAC02C18BF43F000431BD4A2F237
:103200004E02D2F57C72C0F22080502AA8BF502214
:1032100023FA02F12CFA02F060B4D2F1200284BF4A
:1032200003FA02F52843C2F100029CBF23FA02F51B
:10323000284360BC704701F1804212F5801F04DA18
:103240004FF000004FF00001704770B5FFF702FF2C
:1032500049922480002001E06FEAE1700146704746
:103260000C10141820304000000000000000000086
:10327000010000000000000002000000000000004B
:103280000300000000000000030000000100000037
:103290000400000001000000050000000100000023
:1032A000060000000100000006000000020000000F
:1032B00007000000020000000800000002000000FB
:1032C00009000000020000000900000003000000E7
:1032D0000A000000030000000B00000003000000D3
:1032E0000C000000030000000D00000003000000BF
:1032F0000D000000040000000E00000004000000AB
:103300000F000000040000000F0000000500000096
:103310000F000000060000000F0000000700000082
:103320004033000800000020500000008C0100081D
:103330009033000850000020C80C0000A8010008CD
:10334000000E2707F90D0008250E0008850E00085D
:10335000B10E0008000000000000000000000000A6
:10336000000000000000000000000000000000005D
:10337000000000000000000000000000000000004D
:10338000000000000100000000000000000000003C
:04000005080001519D
:00000001FF
